:020000040800F2
:100000002009002089010008C71E00089F1A000867
:10001000C51E000877030008D92A00080000000068
:100020000000000000000000000000003126000871
:100030007903000800000000F924000835260008B4
:10004000A3010008A3010008A3010008A301000800
:10005000A3010008A3010008A3010008A3010008F0
:10006000A3010008A3010008A3010008A3010008E0
:10007000A3010008A3010008A3010008A3010008D0
:10008000A3010008A3010008A3010008A3010008C0
:10009000A3010008A3010008A3010008A3010008B0
:1000A000A3010008A3010008A3010008A3010008A0
:1000B000A3010008A3010008A3010008A301000890
:1000C000A3010008A3010008A3010008A301000880
:1000D000A3010008CD2A0008A3010008A30100081D
:1000E000A3010008A3010008A301000800F002F822
:1000F00000F03AF80AA090E8000C82448344AAF188
:100100000107DA4501D100F02FF8AFF2090EBAE885
:100110000F0013F0010F18BFFB1A43F0010318473B
:10012000CC2C0000EC2C0000103A24BF78C878C119
:10013000FAD8520724BF30C830C144BF04680C60ED
:10014000704700000023002400250026103A28BF35
:1001500078C1FBD8520728BF30C148BF0B60704739
:100160001FB51FBD10B510BD00F0CBF81146FFF74D
:10017000F7FF02F017FD00F0E9F803B4FFF7F2FF14
:1001800003BC00F0F1F80000094880470948004727
:10019000FEE7FEE7FEE7FEE7FEE7FEE7FEE7FEE737
:1001A000FEE7FEE704480549054A064B7047000094
:1001B000AF260008ED0000082003002020090020E1
:1001C000200500202005002010B5203AC0F00B804B
:1001D000B1E81850203AA0E81850B1E81850A0E84B
:1001E0001850BFF4F5AF5FEA027C24BFB1E81850A5
:1001F000A0E8185044BF18C918C0BDE810405FEA15
:10020000827C24BF51F8043B40F8043B08BF704790
:10021000D20728BF31F8023B48BF11F8012B28BF95
:1002200020F8023B48BF00F8012B70474FF0000256
:1002300000B5134694469646203922BFA0E80C50DC
:10024000A0E80C50B1F12001BFF4F7AF090728BFB7
:10025000A0E80C5048BF0CC05DF804EB890028BF33
:1002600040F8042B08BF704748BF20F8022B11F05C
:10027000804F18BF00F8012B704700004FF0013C81
:1002800050F8042B51F8043B9A4221D1A2EB0C0305
:10029000934313EACC1317D150F8042B51F8043BC5
:1002A0009A4215D1A2EB0C03934313EACC130BD162
:1002B00050F8042B51F8043B9A4209D1A2EB0C03ED
:1002C000934313EACC13DBD04FF00000704700BF1C
:1002D000D01A01BAB1FA81F101F0180122FA01F045
:1002E000CB40C1F12001DBB2C0B2C01A2CFA01F33D
:1002F000D11A914311EAC311E6D170477047704794
:100300007047754600F02CF8AE4605006946534626
:1003100020F00700854618B020B5FFF743FFBDE881
:1003200020404FF000064FF000074FF000084FF05C
:10033000000B21F00701AC46ACE8C009ACE8C009ED
:10034000ACE8C009ACE8C0098D46704710B504465A
:10035000AFF300802046BDE81040FFF70EBF00005D
:1003600000487047BC02002001491820ABBEFEE7E0
:10037000260002007047FEE770470000044948432A
:100380004FF0E02148610020886107200861704734
:100390004019010010B590F821100022022905D063
:1003A0000421816380F82020012010BD01680B68C2
:1003B00023F00E030B6001680B6823F001030B6050
:1003C00090F84030C46B012101FA03F3636080F8B8
:1003D000211080F82020104610BD000010B590F8C4
:1003E00021100024022903D00421816301243DE06F
:1003F00001680A6822F00E020A6001680A6822F0A9
:1004000001020A601A4A0168914201D1012121E0EA
:10041000174A1432914201D110211BE0144A2832AC
:10042000914201D1891515E0114A3C32914201D126
:1004300089140FE00E4A5032914202D14FF48031BC
:1004400008E00B4A6432914202D14FF4801101E07E
:100450004FF08071064A083A5160012180F821105E
:10046000002180F82010416B01B18847204610BD63
:100470000800024070B5044600F010F90546601C03
:1004800002D004480078044400F008F9401BA04260
:10049000FAD370BD240000202DE9F84FDFF8B891A1
:1004A000002409F1040A0AF1040B23460F270BF17B
:1004B000040EC9E00125A5402A40AA427DD1674E1D
:1004C000D1F804C0ACEB0608B44532D014DCBCF162
:1004D000030F3AD009DCBCF1000F2AD0BCF1010FA8
:1004E0001CD0BCF1020F31D11DE0BCF1110F17D0AF
:1004F000BCF1120F2AD119E0B8F5881F19D006DC1B
:10050000B8F5803F15D0B8F5801F1FD111E0B8F5C0
:10051000001F0ED0B8F5041F18D10AE0CB6815E013
:10052000CB681B1D12E0CB6808330FE0CB680C339F
:100530000CE08B682BB1012B4FF0080303D0456111
:1005400004E0042302E0056100E00023FF2A01D853
:10055000064601E000F104064FEA840501D9A5F141
:100560002005D6F8008007FA05FC28EA0C0803FAF3
:1005700005F548EA0508C6F800804D68ED0062D52B
:10058000374DAE6946F00106AE61AD6924F0030651
:1005900005F001050095334D06EB050CDCF808501D
:1005A000A607360F07FA06F825EA0805DFF8B8802F
:1005B000404503D14FF0000817E044E0DFF8AC807D
:1005C000404502D14FF001080FE0DFF8A48040451C
:1005D00002D14FF0020808E0DFF89880404502D1D0
:1005E0004FF0030801E04FF0040808FA06F848EA63
:1005F0000508CCF808804D68D9F80060ED034D4639
:1006000001D5164300E096432E604D68DAF800608D
:10061000AD03554601D5164300E096432E604D6864
:10062000DBF80060ED025D4601D5164300E096431D
:100630002E604D68DEF80060AD02754601D51643A8
:1006400000E096432E60641C0D682A46E5407FF466
:1006500031AFBDE8F88F0000000401400000111028
:10066000001002400000014000080140000C014061
:1006700000100140001401408068084000D00120B3
:100680007047C26821EA02030A4043EA024101615D
:1006900070470AB1016170470904FBE701488068AF
:1006A000704700002400002002488168027811444D
:1006B0008160704724000020074810B5016841F0B0
:1006C00010010160032000F075F80F2000F006F81B
:1006D00000F024F8002010BD0020024070B50D4D40
:1006E00004464FF47A712878B1FBF0F00A490968A2
:1006F000B1FBF0F000F0D1FD48B9102C07D2002278
:100700002146501E00F036F800206C6070BD0120BC
:1007100070BD000024000020300000200C4808B507
:10072000816941F001018161816901F0010100915C
:10073000C16941F08051C161C06900F080500090F2
:100740000448416821F0E06141F00071416008BD5A
:100750000010024000000140002809DB00F01F02E9
:10076000012191404009800000F1E020C0F8001113
:1007700070470000F0B40E4B1B680C46C3F3022315
:10078000C3F10705042D00D90425191D072901D23D
:10079000002300E0DB1E012606FA05F1491E214078
:1007A00099409E40761E16403143F0BC02F095B948
:1007B0000CED00E0064900F0070208684FF6FF0361
:1007C000184040EA0220034A1043086070470000C6
:1007D0000CED00E00000FA052DE9F0470F4605009A
:1007E00061D0434E306800F00700B84209D230684B
:1007F00020F0070038433060306800F00700B8424E
:1008000051D128683B4C810712D5400703D5606859
:1008100040F4E06060602878000703D5606840F429
:10082000605060606068A96820F0F0000843606074
:100830002878C00728D06868012810D021680228CD
:1008400010D0890700292EDA616821F003010143E5
:100850006160FFF723FF804641F288390DE021688F
:100860008903EFE78901EDE7FFF718FFA0EB080127
:10087000494502D90320BDE8F0876068696800F047
:100880000C00B0EB810FEFD1306800F00700B842E8
:100890000BD9306820F0070038433060306800F032
:1008A0000700B84201D00120E5E72878400705D5C8
:1008B0006068E96820F4E060084360602878000719
:1008C00006D56068296920F4605040EAC100606084
:1008D00000F038F86168084AC1F30311515CC84060
:1008E0000649086006480068FFF7F8FE0020C2E7E6
:1008F0000020024000100240C42D000830000020FB
:10090000280000200448054900684968044AC1F3EA
:100910000221515CC84070473000002000100240A6
:10092000D42D00080448054900684968044AC1F309
:10093000C221515CC84070473000002000100240C6
:10094000D42D000812A185B00FC98DE80F0014A0A6
:10095000144A006804905168134801F00C03042BFA
:1009600010D0082B0ED1C1F38343C9031DF8030037
:100970000AD5516804AAC1F34041515C0A4A504368
:10098000B0FBF1F005B0704708494843FAE70000B2
:1009900002030405060708090A0B0C0D0E0F1010C0
:1009A000010200000010024000127A0000093D0020
:1009B0002DE9F84F040070D02078C04DC00749D011
:1009C0006868C0F38100012807D06868C0F381001F
:1009D000022809D16868C00306D52868800339D584
:1009E00060680028E7D035E06068B0F5803F0BD044
:1009F00010B1B0F5A02F11D0286820F48030286005
:100A0000286820F4802002E0286840F480302860C4
:100A1000606890B1FFF742FE06460AE0286840F49D
:100A200080202860F0E700BFFFF738FE801B6428B5
:100A300073D828688003F7D50CE0FFF72FFE064631
:100A400005E000BFFFF72AFE801B6428F0D8286865
:100A50008003F7D420789A4E80074FF001094FF0B9
:100A6000000839D5686810F00C0F07D06868C0F32B
:100A70008100022809D16868C00306D4286880076D
:100A800014D52069012808D110E02069B0B1C6F85A
:100A90000090FFF703FE074605E00AE1FFF7FEFDC1
:100AA000C01B0228C4D828688007F7D52868616968
:100AB00020F0F80040EAC10028600DE0C6F8008090
:100AC000FFF7ECFD074604E0FFF7E8FDC01B022836
:100AD00023D828688007F7D4207800072CD57948D8
:100AE000A169D9B1C0F80090FFF7D8FD074604E02E
:100AF000FFF7D4FDC01B02280FD8686A8007F7D51E
:100B000071484FF4FA510068B0FBF1F0009000BF5B
:100B10000098411E0091FAD20EE080E0C0F80080FB
:100B2000FFF7BCFD074604E0FFF7B8FDC01B022835
:100B300075D8686A8007F7D42078400760D5E869DF
:100B40000027C00008D4E86940F08050E861E869F7
:100B5000012700F0805000905C480168C90513D45B
:100B60000168834641F480710160FFF797FD82467A
:100B700006E000BFFFF792FDA0EB0A0064284ED804
:100B8000DBF80000C005F5D5E06801280AD008B1FF
:100B9000052813D0286A20F001002862286A20F076
:100BA000040002E0286A40F001002862E06841F297
:100BB000883B98B1FFF772FD82460BE0286A40F04F
:100BC00004002862EEE700BFFFF768FDA0EB0A0112
:100BD00059455AD8286A8007F6D50CE0FFF75EFD24
:100BE000824605E0FFF75AFDA0EB0A0159454CD8B3
:100BF000286A8007F6D41FB1E86920F08050E861C8
:100C0000E06988B36968C1F38101022944D00228F0
:100C1000C6F8608004D0FFF741FD044638E034E0B8
:100C2000FFF73CFD074604E0FFF738FDC01B022834
:100C30002BD828688001F7D4206AB0F5803F05D111
:100C40006868A16820F4003008436860D4E90801AE
:100C50000843696821F4741108436860C6F860901D
:100C6000FFF71CFD044606E025E000BFFFF716FD78
:100C7000001B022809D828688001F7D51BE000BFB7
:100C8000FFF70CFD001B022802D90320BDE8F88FF6
:100C900028688001F4D40EE00128F7D06868226A41
:100CA00000F48031914204D1616A00F470108842EE
:100CB00001D00120EAE70020E8E700000010024030
:100CC0000000424280044242300000200070004098
:100CD00070B5040009D0606A002540B125616561E6
:100CE000A56294F8510040B10CE0012070BD60682D
:100CF000B0F5827FF4D0E561F2E784F850502046E9
:100D000000F040F8022084F851002068016821F0CA
:100D100040010160A088218900F4827001F404413F
:100D20000843A18901F400610843217C01F002011C
:100D30000843217D01F001010843218B01F400717A
:100D40000843217F01F03801084394F8201001F096
:100D500080010843218D01F4005108432168086097
:100D6000A069042101EA1040216848602068C16937
:100D700021F40061C1616565012084F85100002003
:100D800070BD000030B585B0002400940194029439
:100D9000039400681549884225D11548C16941F47A
:100DA0008041C161C16901F480410491816941F0D0
:100DB0000801816180690F4D00F0080004904FF434
:100DC00020400090022001900320039069462846AD
:100DD000FFF762FB4FF48040CDE9000469462846E6
:100DE0000294FFF759FB05B030BD00000038004009
:100DF00000100240000C01402DE9F84F0446406805
:100E00000025984616460F464FF0040BB0F5827F3A
:100E100001D1A06888B194F85000012818D00120B1
:100E200084F85000FFF73AFC814694F851004FF0E7
:100E3000000A01280ED0022582E084F851B0134642
:100E40000A462046CDF8008000F036F9BDE8F88F5C
:100E50000220FBE7002F72D0002E70D084F851B032
:100E6000C4F854A0A763A687E687C4F830A0A4F806
:100E700034A0A4F836A0C4F840A0C4F844A0A068E8
:100E8000B0F5004F09D12068016821F040010160F0
:100E90002068016821F480410160206801684906EA
:100EA00003D4016841F040010160E068D8B139E045
:100EB00020688168C90709D0007BA16B0870A06B0E
:100EC000401CA063E08F401EE0870CE0FFF7E6FBCC
:100ED000A0EB0901414503D3B8F1FF3F03D036E051
:100EE000B8F1000F33D0E08F0028E1D11DE0206879
:100EF0008168C90709D0C068A16B0880A06B801CFD
:100F0000A063E08F401EE0870CE0FFF7C7FBA0EB7B
:100F10000901414503D3B8F1FF3F03D017E0B8F111
:100F2000000F14D0E08F0028E1D14A464146204608
:100F300001F0E3FA08B120206065606D00B1012581
:100F4000012084F8510084F850A028467EE703254C
:100F5000F6E72DE9F84F044690F8500000271D46AB
:100F60001646894601280DD04FF0010B84F850B089
:100F7000FFF794FB804694F85100BA46012804D04C
:100F8000022793E00220BDE8F88FB9F1000F73D07B
:100F9000002E71D0032084F85100C4F854A0C4F886
:100FA0003090A686E686C4F838A0A4F83CA0A4F841
:100FB0003EA0C4F844A0C4F840A0A068B0F5004F1B
:100FC00009D12068016821F04001016020680168B2
:100FD00041F48041016020680168490603D401683A
:100FE00041F040010160E068B0F5006F606803D037
:100FF00030B3012E24D041E008B1012E1CD1206B6A
:1010000021680088C86006E020688168890709D5E2
:10101000216B0988C160206B801C2063E08E401E1C
:10102000E08609E0FFF73AFBA0EB0800A84202D3F4
:10103000681C01D031E07DB3E08E0028E4D120E0CF
:10104000206B21680078087306E0206881688907B2
:1010500009D5216B09780173206B401C2063E08E59
:10106000401EE0860AE0FFF719FBA0EB0800A8424B
:1010700003D3681C02D010E017E06DB1E08E0028A9
:10108000E3D142462946204601F065FA08B1202006
:101090006065A06818B106E0FFE7032706E0206856
:1010A000C16880680090606D00B1012784F851B07C
:1010B00084F850A0384666E72DE9F84F044690F8CA
:1010C000500000270A9E1D4692468B464FF00109AC
:1010D00001280ED0012084F85000FFF7DFFA804687
:1010E00094F85100616801280CD0B1F5827F07D1D6
:1010F00002E00220BDE8F88FA16809B9042801D0F8
:101100000227C2E0BBF1000F27D0BAF1000F24D0B4
:101110001DB394F85100042802D0052084F8510032
:1011200000206065C4F838A0E587A587C4F830B012
:10113000E586A5862064606420680168490603D4BA
:10114000016841F040010160E068B0F5006F60683F
:1011500005D0E8B3012D46D07FE0012795E008B126
:10116000012D39D1206B21680088C860206B801C5C
:101170002063E08E401EE0862EE0206881688907AB
:101180000FD5E18E69B1B9F1010F0AD1216B098840
:10119000C160206B801C2063E08E401EE0864FF013
:1011A000000920688168C9070CD0E18F51B1C0687F
:1011B000A16B0880A06B801CA063E08F401EE087BD
:1011C0004FF00109FFF76AFAA0EB0800B04200E017
:1011D00009E001D3701C50D1E08E0028CDD1E08F02
:1011E0000028CAD13FE0206B216800780873206B8B
:1011F000401C2063E08E401EE0862EE0206881685F
:1012000089070FD5E18E69B1B9F1010F0AD1216BC0
:1012100009780173206B401C2063E08E401EE0863D
:101220004FF0000920688168C9070CD0E18F51B1E7
:10123000C068A16B0870A06B401CA063E08F401ECB
:10124000E0874FF00109FFF729FAA0EB0800B04250
:1012500002D3701C01D010E07EB1E08E0028CDD109
:10126000E08F0028CAD142463146204601F073F98A
:1012700028B101272020606507E0032705E0A0686A
:1012800018B92068C16880680090012084F8510076
:10129000002084F8500038462CE710B5401EB0F10D
:1012A000807F01D3012010BD4FF0E02460610F2149
:1012B000601701F012FC0020A061072020610020CF
:1012C00010BD10B590F83C20012A22D0012280F8F0
:1012D0003C20CA688C6822F4407222434C6822F495
:1012E000806222430C6822F4006222430C6922F4DB
:1012F000805222434C6922F400522243C9690023E0
:1013000022F480420A4301684A6480F83C3000209D
:1013100010BD022010BD000070B590F83C20012ADD
:1013200026D0012480F83C40022280F83D2003684A
:101330005A689D6822F070060A6832435A600D4B65
:1013400002689A4208D0B2F1804F05D00A4B9A4207
:1013500002D00A4B9A4204D1496825F08003194310
:10136000916080F83D40002180F83C10084670BD37
:10137000022070BD002C0140000400400008004025
:1013800010B5040003D094F83D0010B107E001202F
:1013900010BD002084F83C00204600F01FF8022019
:1013A00084F83D00211D206801F082F9012084F8B5
:1013B000460084F83E0084F83F0084F8400084F83A
:1013C000410084F8420084F8430084F8440084F823
:1013D000450084F83D00002010BD000008B50C4A0F
:1013E00001680C48914207D1816941F40061816133
:1013F000806900F4006009E0074A914207D1C169A1
:1014000041F00201C161C06900F00200009008BD16
:10141000002C0140001002400004004070B504465A
:1014200090F83C00012817D0012584F83C50022098
:1014300084F83D002068826822F0770222F47F421F
:1014400082600868502830D00DDC20284DD005DCA3
:1014500098B310283BD148E0022070BD302844D01A
:10146000402834D139E0602828D0702806D0B0F563
:10147000805F2CD0B0F5005F29D10AE0CB68D1E9BC
:101480000121206801F057F92068816841F0770157
:1014900009E0CB68D1E90121206801F04CF920680E
:1014A000816841F48041816011E0CA684968206820
:1014B00001F0F6F95021206807E016E0CA68496893
:1014C000206801F0FEF96021206801F03EF984F8FF
:1014D0003D50002084F83C0070BDCA68496820680F
:1014E00001F0DEF940212068EFE72268014610464E
:1014F000EBE7000000B585B0002100910191029159
:1015000003911B4B02681B4802219A4212D1826947
:1015100042F0040282618069039100F004000490AB
:101520004FF44070CDE9000169461348FEF7B4FF5F
:1015300005B000BD114B9A42FAD1826942F008020F
:1015400082618069039100F0080004903020CDE9A9
:10155000000169460A48FEF79FFF0A48416821F4E6
:10156000406141F0E06141F400614160E0E700006A
:10157000002C01400010024000080140000400401F
:10158000000C01400000014070B5044690F83C009A
:101590000D4601280AD0012084F83C0042B1042AFB
:1015A00018D0082A2AD00C2A4DD139E0022070BD6B
:1015B000206801F0D3F82068816941F00801816159
:1015C0002068816921F004018161206881692A69AC
:1015D000114311E0206801F0E9F82068816941F4C5
:1015E000006181612068816921F4806181612068E6
:1015F00081692A6941EA0221816124E0206801F0C1
:1016000001F92068C16941F00801C1612068C16920
:1016100021F00401C1612068C1692A69114311E008
:10162000206801F01BF92068C16941F40061C161C3
:101630002068C16921F48061C1612068C1692A699B
:1016400041EA0221C161002084F83C0070BD10B560
:10165000040003D094F83D0010B107E0012010BD54
:10166000002084F83C00204600F01EF8022084F898
:101670003D00211D206801F01BF8012084F8460080
:1016800084F83E0084F83F0084F8400084F841006C
:1016900084F8420084F8430084F8440084F845004C
:1016A00084F83D00002010BD7047000010B50446CE
:1016B000022249B104290ED0082913D094F8410020
:1016C000012816D0012010BD94F83E000128F9D160
:1016D00084F83E200FE094F83F000128F2D184F80E
:1016E0003F2008E094F840000128EBD184F8402026
:1016F00001E084F841200122206801F00FF80F4931
:101700002068884203D1426C42F40042426420685F
:10171000884208D0B0F1804F05D00949884202D0F4
:101720000849884204D1816801F00701062903D0E5
:10173000016841F001010160002010BD002C014052
:10174000000400400008004070477047F8B5026888
:1017500004461068D168536910F00F0F4FF0000570
:1017600053D003F0010601F4907737435FD0C207EE
:1017700005D0CA0503D5226C42F00102226442075B
:1017800005D5DA0703D0226C42F0020222648207F8
:1017900005D5DA0703D0226C42F004022264020766
:1017A00007D501F02002324303D0226C42F0080238
:1017B0002264226C002A34D0800604D5880602D523
:1017C000204601F0B0F820684069216CC0F3801019
:1017D000090700D430B3204601F08DF82068416934
:1017E00049061BD5416921F040014161A06BA8B1B8
:1017F00058494163A06BFEF7F1FD002811D0A06BA2
:10180000416B01B0BDE8F040084783060FD58B0659
:101810000DD52046BDE8F84001F085B82046FFF719
:1018200094FFF8BD2046FFF790FF2564F8BD266BB6
:101830002023012E52D1C60650D5CE064ED51068B3
:1018400050680090506940062AD5A16B086840682E
:101850000004000CEAD0A68D8642E7D9E0858869AD
:10186000202818D0D06820F48070D06020684169AA
:1018700021F0010141612068416921F0400141618D
:1018800084F83E3025632068C16821F01001C160F2
:10189000A06BFEF77FFDA08DE18D401A81B219E0AB
:1018A000A08DE18D401A81B2E08D0028BED00029C4
:1018B000BCD0D06820F49070D0602068426922F0DB
:1018C0000102426184F83E3025632068C26822F03C
:1018D0001002C2602046FFF737FFF8BD05062BD582
:1018E0000D0629D594F83D002128F6D1A068B0F561
:1018F000805F01D12069B0B1206A411C216221685A
:1019000000784860E08C401E0004000CE084E4D1C4
:101910002068C16821F08001C1602068C16841F081
:101920004001C160F8BD206A0088C0F30800506023
:10193000206A801C2062E5E74006F3D54806F1D511
:10194000D168204621F04001D16084F83D3000F09C
:10195000A5F8F8BDE728000870B5040004D094F895
:101960003D00002510B106E0012070BD84F83C5018
:10197000204600F023F8242084F83D002068C16848
:1019800021F40051C160204601F028F82068016967
:1019900021F4904101612068416921F02A014161EF
:1019A0002068C16841F40051C1602564202084F89A
:1019B0003D0084F83E00002070BD000030B585B0C9
:1019C0000024009401940294039400681B49884207
:1019D00032D11B48816941F480418161816901F400
:1019E00080410491816941F0080181618069154D50
:1019F00000F0080004904020009002200190032095
:101A0000039069462846FEF747FD8020CDE9000493
:101A1000694628460294FEF73FFD0B48416841F0B5
:101A2000E06141F004014160002201212520FEF720
:101A3000A1FE2520FEF790FE05B030BD0038014024
:101A400000100240000C01400000014090F83E30C0
:101A5000202B0ED159B152B190F83C30012B08D057
:101A6000012380F83C300023036301F013B8012008
:101A700070470220704700000649006809688842E4
:101A800007D10549012002464870891D0148FFF72A
:101A9000DDBF704780010020000000207047FEE796
:101AA0002DE9F041104E002506F12A0700F0A2F8BA
:101AB000284600F093F8002436F8141057F8240054
:101AC000FEF7DAFD50B1641CE4B2042CF4D36D1CB3
:101AD000EDB2042DEAD30020BDE8F08102480830C1
:101AE00000EB8500005DF7E75E0000202DE9F04780
:101AF000374C0546207800282CD0364F4FF48049CB
:101B0000012829D000264FF40058022829D00328A4
:101B100020D1E068401CE060142804D341463846D8
:101B2000FEF7AFFDE660A068401CA060B0F57A7FCC
:101B300010D32948414640F85E6F4660012020706E
:101B400002463846FEF7A5FD012249463846FEF713
:101B5000A0FDA660BDE8F087442DFBD102202070D7
:101B600028E0A5F13000092818D8E0798542F1D0A5
:101B700020790828EED2DFF86080494608F15E0837
:101B800008F80050401C20713846FEF77AFDE571D8
:101B900020790828DED188F80860DBE7412DD9D10B
:101BA0000B490D4818315E30FEF768FB40B1032049
:101BB0002070267149463846BDE8F047FEF761BD02
:101BC0002670002241463846FEF763FDF2E700002A
:101BD0000000002000100140980100200449044A40
:101BE000223231F8101052F820000022FEF751BDC9
:101BF0005600002070B5084D002405F1220600BFF4
:101C000035F8141056F824000122FEF742FD641C3A
:101C1000E4B2042CF4D370BD560000202DE9F04F3F
:101C200085B00024324800940194029403948169A1
:101C300041F010018161816901F010010491816915
:101C400041F020018161816901F0200104918169E5
:101C500041F004018161816901F00401049181690D
:101C600041F0080181618069DFF8889000F0080088
:101C70004FF460450490002229464846FEF709FDCE
:101C8000DFF874A040F60F47002239465046FEF7B1
:101C900000FDDFF868B04FF4406800224146584626
:101CA000FEF7F7FC0095022601250396CDE90154C5
:101CB00069464846FEF7F0FB00970396CDE90154CC
:101CC00069465046FEF7E8FBF0208DE83100694692
:101CD0005046FEF7E1FBCDF800800396CDE90154B4
:101CE00069465846FEF7D8FB05B0BDE8F08F000006
:101CF000001002400010014000080140000C0140AB
:101D00000F4810B50D4901604FF482714160002108
:101D10008160C1604FF400720161C0E905120822C0
:101D2000C0E90721416281620A21C162FEF7D0FF4A
:101D3000002801D072B6FEE710BD00000038004058
:101D40009800002010B596B000240F9410941194C0
:101D5000129413941C2168461494FEF767FA20210C
:101D600007A8FEF763FA2C482A4901604721C0E919
:101D7000011440F2E731C0E9031444618461FFF7C4
:101D8000FFFA08B172B6FEE74FF480500F900FA92A
:101D90002148FFF743FB08B172B6FEE71E48FFF784
:101DA00056FC08B172B6FEE7139413A91A481494AE
:101DB000FFF7B2FA08B172B6FEE76020CDE9000481
:101DC00002940394049405940022694612480694F0
:101DD000FFF7DAFB08B172B6FEE7042269460E4847
:101DE000FFF7D2FB08B172B6FEE707940894099496
:101DF0004FF400500A94CDE90B4007A906480E9411
:101E0000FFF75FFA08B172B6FEE70348FFF772FB0F
:101E100016B010BD002C0140F000002010B58EB0AF
:101E200000240794089409940A940B941C21684692
:101E30000C94FEF7FBF92248204901604721C0E9D4
:101E4000011440F2E731C0E903148461FFF798FA06
:101E500008B172B6FEE74FF48050079007A9184802
:101E6000FFF7DCFA08B172B6FEE71548FFF7EFFBA3
:101E700008B172B6FEE70B940BA911480C94FFF75A
:101E80004BFA08B172B6FEE76020CDE90004029477
:101E9000002269460A480494FFF776FB08B172B63F
:101EA000FEE7042269460648FFF76EFB08B172B6EA
:101EB000FEE70348FFF71EFB0EB010BD0004004014
:101EC00038010020FEE7FEE708B5002000F00AF91F
:101ED00050208DF8000073208DF801006423022249
:101EE00069460348FFF735F8012000F0FBF808BD0C
:101EF000200200200449054A0968B1FBF2F1414380
:101F0000491EFDD27047000030000020C0C62D00E1
:101F10000020AFF3008070B5054600F051F904468B
:101F2000C0F380166EB115B1C4F342002870402191
:101F3000072000F0ABFAA00603D52021072000F00F
:101F4000A5FA304670BD00000FB47CB514460D46AE
:101F50000646582209A95C48FEF736F95B4B01207A
:101F6000DE60DD801C8100F0BDF8002000F0B0F8DC
:101F70000520FEF77FFA0821002000F087FA3F21B4
:101F8000012000F083FA0321022000F07FFA0321F0
:101F9000084600F07BFA0321042000F077FA0221C2
:101FA000052000F073FA0F21062000F06FFA0E21D1
:101FB000072000F06BFA0021082000F067FA0021EA
:101FC000092000F063FAE7248DF803408DF8024001
:101FD0008DF801408DF804408DF8004005226946D7
:101FE0000A2000F06BFAC2208DF803008DF8020081
:101FF0008DF801008DF804008DF800000522694677
:102000000B2000F05BFAC3210C2000F03FFAC42142
:102010000D2000F03BFAC5210E2000F037FAC62152
:102020000F2000F033FA8DF803408DF802408DF850
:1020300001408DF804408DF80040052269461020CB
:1020400000F03CFA0021112000F020FA00211220BB
:1020500000F01CFA0021132000F018FA00211420CF
:1020600000F014FA0021152000F010FA00211620CB
:1020700000F00CFAFFF728FF00211C2000F006FA00
:1020800000211D2000F002FA0F21084600F0D4F9CB
:10209000032000F0ABF9012000F07AF9022000F0F3
:1020A0005CF900F029F8202000F0BEF900F04AF9B0
:1020B0004C2000F066F900F07FF800F079F800F0AD
:1020C000E1F87CBC5DF814FB200200203800002001
:1020D000020003480189C06800D00122FEF7D9BA86
:1020E0003800002002000348C188C06800D00122E7
:1020F000FEF7CFBA3800002010B51D2000F002F91D
:1021000020F004011D2000F0C1F900211C2000F086
:10211000BDF902490020C87010BD00003800002041
:1021200010B51D2000F0EEF840F006011D2000F073
:10213000ADF91D2000F0E6F848B9FFF7C5FE1D20F7
:1021400000F0E0F840F006011D2000F09FF91C208F
:1021500000F0D8F840F00301BDE810401C2000F06A
:1021600095B9000010B51D2000F0CCF840F0040136
:102170001D2000F08BF91D2000F0C4F848B9FFF7CE
:10218000A3FE1D2000F0BEF840F004011D2000F069
:102190007DF91C2000F0B6F840F03F011C2000F053
:1021A00075F902490120C87010BD000038000020F8
:1021B000FF21E22000F06AB9FF21E12000F066B9BA
:1021C000072000F09FB8000010B5FFF7A1FE18B17E
:1021D0002021144800F061F8124800784F2813D0ED
:1021E0000BDC422817D0462812D04C280FD13221C0
:1021F0000320BDE8104000F081BC52280ED05328C7
:1022000005D100210846F4E707490020487110BDB8
:102210005F210120EDE75F210220EAE7322104205F
:10222000E7E70000C4010020000000207FB50400A3
:102230001248134D06D0062C1ED8022C07D2005D82
:10224000052206E0DDE90212C5E90412F7E7005DA8
:10225000012202A900F032F90848A978801F005D28
:1022600000F014F9022000F04DF80121A1400843CC
:10227000C1B2022000F00AF97FBD0000E22D000883
:102280003800002010B5002000F03CF820F00201DA
:10229000BDE81040002000F0F9B810B500F010F8CB
:1022A000172000F02FF800F00104FFF781FF6020F5
:1022B00000F028F80CB1012010BD002010BD000076
:1022C00038B505460D4884788C4200D90C4600206C
:1022D000FFF708FF61208DF80000642301226946A2
:1022E0000748FEF736FE6423224629460448FEF7D7
:1022F00083FD0120FFF7F6FE38BD00003800002006
:102300002002002038B504460020FFF7EBFE04F061
:102310001F008DF800006423012269460848FEF77B
:1023200018FE6423012206480DF10101FEF764FD49
:102330009DF801400120FFF7D5FE204638BD000082
:10234000200200207021072000F0A0B808B13F2132
:1023500000E00021012000F099B810B504460020EB
:10236000FFF7D0FF20F00C011CB1012C06D041F08A
:102370000C01BDE81040002000F088B841F00801D1
:10238000F7E77F2800D37F200146052000F07EB8C4
:102390002DE9F04107464FF000080620FFF7B2FF95
:1023A000114D002620F028046E71022F0ED0012F4F
:1023B00010D06E712146062000F068F80620FFF765
:1023C000A1FFA0420BD14FF0010809E06E7144F06B
:1023D0002004EFE70120687144F00804EAE76E7119
:1023E0004046BDE8F08100003800002010B50446EA
:1023F0000620FFF787FF20F00601032C0DD0022CEA
:1024000005D0012C06D054B1042C06D007E041F0D1
:10241000040104E041F0020101E041F00601BDE8E1
:102420001040062000F032B8202800D320200149B7
:10243000887070473800002000F00F0060F31F1113
:10244000042000F023B8000010B50020FFF75AFF69
:1024500040F00301002000F019F80B49D1E9040114
:10246000084305D00849052210310A2000F026F85B
:10247000FFF7A2FEFFF79CFE0120FFF729FEBDE853
:1024800010409620FFF736BD3800002038B50546CD
:102490000C460020FFF726FE45F020008DF80000D6
:1024A0008DF801406423022269460348FEF751FD7E
:1024B0000120FFF717FE38BD20020020F8B50446C2
:1024C00015460E460020FFF70DFE44F020008DF863
:1024D00000006423012269460648FEF73AFD6423A2
:1024E0002A4631460348FEF734FD0120FFF7FAFD86
:1024F000F8BD0000200200207047F8B5044640688F
:102500004FF48273984217D1A0684FF48065B0F5FC
:10251000004F01D0A8420FD12068066826F040067F
:1025200006606068984207D1A068A84204D1009272
:102530000B460022012103E000920B46002280217D
:10254000204600F019F8002804D0606D40F020000B
:1025500060650320F8BD38B50B46009204460022A2
:10256000802100F009F8002804D0606D40F02000C0
:102570006065032038BD00002DE9F8431E469146F2
:1025800088460446089DFEF789F8401B351AFEF779
:1025900085F8074625480068C0F3CB30684338E02B
:1025A000701C37D0FEF77AF8C01BA84203D215B1D1
:1025B000009860B32CE02068416821F0E0014160A0
:1025C0006068B0F5827F0BD1A068B0F5004F02D0F3
:1025D000B0F5806F04D12068016821F040010160EE
:1025E000A06AB0F5005F09D12068016821F40051AC
:1025F00001602068016841F400510160012084F805
:102600005100002084F850000320BDE8F883002525
:10261000401E00902068816838EA010004D0002143
:102620004945BDD10020F0E70121F9E73000002045
:102630007047000010B5FEF737F8FFF731FA03498D
:10264000C870C878BDE81040FFF750BA00000020FD
:1026500030B58FB028216846FDF7E8FD14210AA89F
:10266000FDF7E4FD01210804CDE9001000240294E7
:1026700002250491CDE907504FF4E0100990684617
:10268000FEF796F908B172B6FEE70F20CDE90A050C
:102690004FF48060CDE90C4002210AA80E94FEF7A9
:1026A0009BF8002801D072B6FEE70FB030BD70472E
:1026B000F0B50268164B174C174D4FF08047984203
:1026C00005D0B84203D0A04201D0A84203D122F0E5
:1026D00070064A683243984205D0B84203D0A042FF
:1026E00001D0A84203D122F44074CA6822434C6945
:1026F00022F08002224302608A68C2620A68826213
:10270000984201D10969016301214161F0BD0000D6
:10271000002C0140000400400008004010B501F00A
:102720001F030121046A99408C430462016A9A40A4
:102730001143016210BD10B5846842EA032224F4FB
:102740007F440A432243826010BD826822F07002F7
:102750000A4342F0070181607047000030B5026A09
:1027600022F001020262026A4368846924F0730560
:102770000C682C4322F002058A682A430A4DA842BD
:102780000BD122F00805CA6823F440732A434D692F
:1027900022F004021D438B692B4343608461496826
:1027A0004163026230BD0000002C014030B5026A76
:1027B00022F010020262026A436884690D6824F400
:1027C000E64444EA05248D6822F0200242EA05121C
:1027D0000B4DA8420ED1CD6822F0800242EA0512CC
:1027E0004D6923F4406343EA85038D6922F040027A
:1027F00043EA85034360846149688163026230BDB6
:10280000002C014030B5026A22F480720262036A31
:102810004268C46923F4007324F073050C682C43E8
:102820008D6843EA05230C4DA8420ED1CD6823F4F0
:10283000006343EA05234D6922F4405242EA05123F
:102840008D6923F4806342EA05124260C4614968DD
:10285000C163036230BD0000002C014030B5026A44
:1028600022F480520262046A4268C3690D6823F44C
:10287000E64343EA05238D6824F4005444EA053412
:10288000064DA84204D14D6922F4804242EA8512E5
:102890004260C36149680164046230BD002C01409C
:1028A00010B5036A046A24F001040462846924F008
:1028B000F00444EA021423F00A020A43846102622B
:1028C00010BD10B5036A23F0100303628369046A24
:1028D00023F4704343EA023224F0A00343EA0111D7
:1028E0008261016210BD10B5406A0021C185C184BA
:1028F000FEF72BFF10BD0168CA6822F49072CA600F
:1029000001684A6922F001024A61016B012904D180
:102910000168CA6822F01002CA60202180F83E10C7
:1029200000210163704708B590F83E10222901D0BC
:10293000022008BD82684FF480539A4201D1016998
:1029400021B1816A9A421BD04AB10AE00268816AC9
:102950005268C2F308020A80816A891C08E0026991
:1029600072B10268526802F07F020A70816A491CE3
:102970008162C18D491E0904090CC18503D019E08B
:1029800002685268F1E70168CA6822F02002CA6052
:102990000168CA6822F48072CA6001684A6922F03C
:1029A00001024A61202180F83E10016B012903D009
:1029B000FFF762F8002008BD002101630168CA68C2
:1029C00022F01002CA6001680A68D20602D50A68BD
:1029D00049680091818DFEF7B7FEEBE770B50446BC
:1029E00000680169E26821F44051114301612169E5
:1029F000A0680843616908432168CA6841F20C6312
:102A00009A430243CA6020684169A26921F4407177
:102A1000114341611E492068884202D1FDF782FFBF
:102A200001E0FDF76FFF00EBC00101EB00126068F1
:102A300064218000B2FBF0F3B3FBF1F36FF01806F2
:102A40007343B2FBF0F5B2FBF0F605EB83053223DE
:102A500003EB0515B5FBF1F5B6FBF1F605F0F00556
:102A600005EB0615B2FBF0F6B2FBF0F0B0FBF1F0AF
:102A70006FF01802504306EB800003EB0010B0FB30
:102A8000F1F0216800F00F002844886070BD00005C
:102A90000038014081628285C285002101642222C2
:102AA00080F83E2080F83C100168CA6842F48072C9
:102AB000CA6001684A6942F001024A610068C1685F
:102AC00041F02001C1600020704700000148FEF77E
:102AD0003DBE000080010020FEE70907090E002826
:102AE00004DB00F1E02080F80014704700F00F00D4
:102AF00000F1E02080F8141D7047000010B50C466E
:102B000005282BD2DFE800F0030B12151D00002270
:102B10001146134800F0DCF80022114618E0224666
:102B200001210F4800F0D4F8224610E0224602218D
:102B300001E0002201210A4800F0CAF822460221E1
:102B400006E022460221064800F0C2F800220121D8
:102B50000348BDE81040103000F0BAB810BD0000C6
:102B60000002002038B5044600200C4D009023469A
:102B70004FF4806229460A4800F0D3F8042042024C
:102B80000090074823462946103000F0CAF8BDE8F7
:102B9000384000210846FFF7B1BF0000000801409F
:102BA00000020020ACB0FDF787FDFFF751FDFFF7F5
:102BB00035F8FFF7C7F842484049002501604FF457
:102BC0001651C0E901150C21C560C0E904518561A9
:102BD000C561FEF7C1FE08B172B6FEE7FFF790F8D7
:102BE000FFF71CF936493622E83915A8FDF7ECFA4B
:102BF000334CE83CE08EADF88A00A06B2390A08FA8
:102C0000ADF89000E08FADF89200112204F1400180
:102C100025A8FDF7D9FA94F851008DF8A500606D4C
:102C20002A90542216A96846FDF7CEFA4FF4806226
:102C300051002448159BFFF787F90020FFF786FB1A
:102C40003420FFF79EFB2020FFF7EEFB1E4C0120F7
:102C5000D4E90423FFF7EAFAFFF784FAFFF760FAF2
:102C6000C820FDF707FCFFF7EFFB0122A11D144868
:102C7000FEF7ECFE0520FDF781FB012020701048D7
:102C800065719038FFF76EFF104D01225103284601
:102C9000FDF7FFFC0122D1032846FDF7FAFC0122D3
:102CA00091032846FDF7F5FC20780028FCD16079D7
:102CB00008B900F057F8FFF787FAF5E70038014048
:102CC00080010020000C01400000002000100140A5
:102CD00070B51546044689B1012918D002291FD1C3
:102CE000A18801222068FDF7D4FCC5F16400C2B2BE
:102CF000A189A068BDE8704000F01EB8A18800223C
:102D00002068FDF7C6FCA1890022A068F2E7A1882F
:102D100000222068FDF7BDFCA1892A46A068E9E7EA
:102D200070BD30B40C46029904608280836081815A
:102D300030BC1846FEF7BABC0068C36A534364222D
:102D4000B3FBF2F292B239B1042907D0082907D0B7
:102D50000C2900D102647047426370478263704758
:102D6000C263704710B5164C607800281AD060799D
:102D7000002817D12146A07989784C281CD004DC82
:102D8000422817D0462804D110E0522816D05328E4
:102D900009D03038092803D800EB80004000A0702B
:102DA0000020607010BD0021084600E00120FFF700
:102DB000A5FEF5E70220FAE70320F8E70420F6E78E
:102DC00000000020000000000000000001020304D9
:102DD0000607080900000000010203041112131481
:102DE00015160A0B0C0D0E0F100000000C2E00081B
:102DF000000000209800000028010008A42E000810
:102E000098000020880800004401000801005000DC
:102E1000000000000000000000000000AA4433226F
:102E200011000000313233343536373800000000ED
:102E30000100000010000000000000000024F40069
:102E40000000000000000000000000000000000082
:102E50000000000000000000000000001414140036
:102E600000000100020004000800100020004000E3
:102E700080003132334134353642373839432A30D5
:102E80002344000000080140000801400008014000
:102E9000000801400008014000080140000801400E
:042EA00000080140E5
:04000005080000ED02
:00000001FF
