:020000040800F2
:100000008808002089010008531E0008F91B000819
:10001000511E0008390400081927000800000000DC
:10002000000000000000000000000000E5250008BE
:100030007304000800000000AD240008E725000854
:10004000A3010008A3010008A3010008A301000800
:10005000A3010008A3010008A3010008A3010008F0
:10006000A3010008A3010008A30100083D04000843
:10007000A3010008A3010008A3010008A3010008D0
:10008000A3010008A3010008A3010008A3010008C0
:10009000A3010008A3010008A3010008A3010008B0
:1000A000A3010008A3010008A3010008A3010008A0
:1000B000A3010008A3010008A3010008A301000890
:1000C000A3010008A3010008A3010008A301000880
:1000D000A3010008A3010008A3010008A301000870
:1000E000A3010008A3010008A301000800F002F822
:1000F00000F03AF80AA090E8000C82448344AAF188
:100100000107DA4501D100F02FF8AFF2090EBAE885
:100110000F0013F0010F18BFFB1A43F0010318473B
:100120008C280000AC280000103A24BF78C878C1A1
:10013000FAD8520724BF30C830C144BF04680C60ED
:10014000704700000023002400250026103A28BF35
:1001500078C1FBD8520728BF30C148BF0B60704739
:100160001FB51FBD10B510BD00F08AF81146FFF78E
:10017000F7FF02F065FB00F0A8F803B4FFF7F2FF09
:1001800003BC00F0AFF80000094880470948004769
:10019000FEE7FEE7FEE7FEE7FEE7FEE7FEE7FEE737
:1001A000FEE7FEE704480549054A064B7047000094
:1001B0005D260008ED000008880200208808002065
:1001C000880400208804002010B5203AC0F00B807D
:1001D000B1E81850203AA0E81850B1E81850A0E84B
:1001E0001850BFF4F5AF5FEA027C24BFB1E81850A5
:1001F000A0E8185044BF18C918C0BDE810405FEA15
:10020000827C24BF51F8043B40F8043B08BF704790
:10021000D20728BF31F8023B48BF11F8012B28BF95
:1002200020F8023B48BF00F8012B70474FF0000256
:1002300000B5134694469646203922BFA0E80C50DC
:10024000A0E80C50B1F12001BFF4F7AF090728BFB7
:10025000A0E80C5048BF0CC05DF804EB890028BF33
:1002600040F8042B08BF704748BF20F8022B11F05C
:10027000804F18BF00F8012B7047704770477047D8
:10028000754600F02BF8AE4605006946534620F04F
:100290000700854618B020B5FFF784FFBDE8204071
:1002A0004FF000064FF000074FF000084FF0000B32
:1002B00021F00701AC46ACE8C009ACE8C009ACE8E5
:1002C000C009ACE8C0098D46704710B50446AFF3CD
:1002D00000802046BDE81040FFF74FBF0048704740
:1002E0002402002001491820ABBEFEE726000200D0
:1002F0007047000070B5044600688168C943C907AB
:1003000017D1816821F00101816000F021FD0546CF
:100310000AE000BF00F01CFD401B022804D9206841
:100320008068C043C00706D020688068C043C0070B
:10033000F0D0002070BDA06A40F01000A062E06A1A
:1003400040F00100E062012070BD10B50146406A36
:10035000826A12F0500F05D0006A026BBDE81040AF
:1003600008461047816A41F400718162016889681A
:10037000C1F3424107290CD1017B51B9816A21F4B3
:1003800080718162816AC90403D4816A41F00101EC
:10039000816200F05BF910BD10B5406A816A41F0DE
:1003A00040018162C16A41F00401C16200F050F96C
:1003B00010BD10B5406A00F04AF910BDF8B500262E
:1003C0000446009600688168C943C9072DD081683A
:1003D00041F001018160164816490068B0FBF1F058
:1003E00000E0401E00900028FBD100F0B1FC054663
:1003F00016E000BF00F0ACFC401B022810D92068BA
:100400008068C043C0070BD0A06A40F01000A06213
:10041000E06A40F00100E06284F824600120F8BD49
:1004200020688068C043C007E4D10020F8BD000008
:100430003C00002040420F00FEE70000014800F0B1
:1004400063BA0000E001002030B590F8405001246C
:10045000AC40C56B6C60046863604368102B036834
:1004600003D099600068C26030BD9A600068C160C6
:1004700030BD704772B6FEE7F8B50025044600951A
:1004800090F82400012808D0012084F82400204698
:10049000FFF730FF060002D053E00220F8BDA06A4B
:1004A00020F4885040F00200A062022000F0EEFC30
:1004B00026490968B1FBF0F0400000E0401E0090C2
:1004C0000028FBD12046FFF779FF2068816841F0C2
:1004D0000801816000F03CFC074608E000F038FCB1
:1004E000C01B0A2803D920688068000715D420683B
:1004F00080680007F2D42068816841F004018160BF
:1005000000F026FC074612E000F022FCC01B0A287F
:100510000DD920688068400709D5A06A20F0020044
:1005200040F01000A06284F824500120F8BD20683B
:1005300080684007E8D4A06A20F0020040F0010083
:10054000A06284F824503046F8BD00003C00002032
:10055000F8B50024009490F824202546012A12D0F2
:10056000012280F824204A681F23072A0DD206683A
:10057000776B521E02EB820293409F430B689340BD
:100580001F43776319E00220F8BD06680D2A0AD2DE
:10059000376BD21F02EB820293409F430B6893405C
:1005A0001F43376309E0F76A0D3A02EB820293407A
:1005B0009F430B6893401F43F7620A68072306684E
:1005C0000A2A0AD3F7680A3A02EB420293409F4391
:1005D0008B6893401F43F76008E0376902EB4202E3
:1005E00093409F438B6893401F4337610A68102AEA
:1005F00001D0112A20D1124B02689A4217D1936878
:100600001B0219D4936843F400039360096810290E
:1006100012D10C490C4A0968B1FBF2F101EB8101DE
:10062000490000E0491E00910029FBD104E0816AE5
:1006300041F020018162012480F824502046F8BD59
:10064000002401403C00002040420F0070477047EA
:10065000704700002DE9F0414FF0000704003D46CF
:100660007ED0A06A002628B9E66284F8246020467D
:1006700000F07EF82046FFF73DFEA16AC90600D4CF
:1006800020B1A06A40F01000A06269E0A16A21F4E4
:10069000885141F00201A1626268E169237B0A434B
:1006A00047EA43010A43A1684FF48077B94209D071
:1006B000012907D05FF0000194F814C0BCF1010FCC
:1006C00002D00AE03946F7E7F3B1A36A43F020030A
:1006D000A362E36A43F00103E3622368D3F804C032
:1006E0002CF4694C4CEA010CC3F804C021688B68F7
:1006F000DFF870C003EA0C0313438B60A168B942B2
:100700000BD0012909D00CE0DFF85CC0A3690CEB29
:1007100043330B4343F40061DFE7218A0D05A5F560
:1007200080152168CB6A23F470032B43CB622168C8
:1007300089680E4B1940914208D1E662A16A21F006
:10074000020141F00101A162BDE8F081A06A20F040
:10075000020040F01000A062E06A40F00100E06298
:100760000120F1E7FDF7E1FF00E0FFFFFE0E1FFFB4
:1007700070B586B000250646009501950295039553
:100780000068194988422DD11849886940F40070E1
:100790008861886900F400700490886940F0040062
:1007A00088618869694600F0040004900320009085
:1007B00001900F4800F0CAF90F4C0E48C4E900053B
:1007C0008020C4E902508000206180006061202008
:1007D000C4E90605204600F041F908B1FFF74AFEDA
:1007E0003462666206B070BD002401400010024011
:1007F0000008014008000240E00100202DE9F04718
:10080000894604463B4900683B4F0E1D904688428E
:1008100001D0B84207D1306810F4702F03D0012501
:100820002846BDE8F08794F8240001280CD0012068
:1008300084F824002046FFF7C1FD05004FF00000BA
:1008400004D084F82400EBE70220EAE7A16A40F62E
:100850000162914341F48071A1622168B94218D1CB
:10086000326812F4702F14D0A16A41F48011A16291
:100870003168490505D5A16A21F4005141F4805140
:10088000A162A16AC9040AD5E16A21F00601E16208
:1008900006E0A26A22F48012A2624968E9E7E062F7
:1008A00084F82400216A15488862216A1448C862C5
:1008B000216A1448086321686FF00200086020680C
:1008C000816841F480718160216843464A464C3119
:1008D000206A00F0F1F820688168C1F342410729DD
:1008E000816803D041F48011816099E741F4A0014F
:1008F000FAE7000000240140002801404B030008F3
:10090000B3030008990300082DE9F05FC16B0C6880
:1009100001680B68D0F840C0042202FA0CF2494D7D
:10092000DFF824A1494E4A4FDFF828B1DFF828E16B
:1009300022422CD05A072AD50A68920603D40A68A4
:1009400022F004020A600168A94201D1042219E0E0
:10095000514501D1402215E0B14202D14FF48062ED
:1009600010E0B94202D14FF480420BE0594502D168
:100970004FF4802206E0714502D14FF4800201E07D
:100980004FF080622F4908394A60C16A3BE04FF05E
:10099000020808FA0CF818EA040F4FF000094FF0AB
:1009A000010235D05FEA837832D50B689B0605D407
:1009B0000B6823F00A030B6080F821200168A9422C
:1009C00001D1022219E0514501D1202215E0B142A6
:1009D00002D14FF4007210E0B94202D14FF400523C
:1009E0000BE0594502D14FF4003206E0714502D1C7
:1009F0004FF4001201E04FF00072124908394A60CA
:100A000080F82090816A00291AD0BDE8F05F08477D
:100A1000082505FA0CF5254212D01B0710D50B68E6
:100A200023F00E030B6090F84010C36B02FA01F143
:100A30005960826380F8212080F82090016BE2E702
:100A4000BDE8F09F080002401C0002403000024058
:100A500044000240580002406C00024030B528B308
:100A600008C8134914221944B1FBF2F18900C1638B
:100A700010498163022141771A6843F6F0718A4375
:100A8000D0E900142143D0E902452C4321430469F5
:100A900021434469214384692143114319600021A2
:100AA0004163012242770177084630BD012030BD05
:100AB000F8FFFDBF0000024070B5044690F820002A
:100AC000002501280CD0012084F8200094F8216032
:100AD0000020012E06D084F820000225284670BD93
:100AE000022070BD022684F82160A0632068066899
:100AF00026F0010606602046FFF7A6FCE06A002803
:100B00002068016802D041F00E0106E021F00401E6
:100B100001602068016841F00A01016020680168F5
:100B200041F001010160D9E770B5044600F010F909
:100B30000546601C02D004480078044400F008F91F
:100B4000401BA042FAD370BD300000202DE9F84FC1
:100B5000DFF8B891002409F1040A0AF1040B2346D6
:100B60000F270BF1040EC9E00125A5402A40AA4237
:100B70007DD1674ED1F804C0ACEB0608B44532D045
:100B800014DCBCF1030F3AD009DCBCF1000F2AD011
:100B9000BCF1010F1CD0BCF1020F31D11DE0BCF142
:100BA000110F17D0BCF1120F2AD119E0B8F5881F28
:100BB00019D006DCB8F5803F15D0B8F5801F1FD1DD
:100BC00011E0B8F5001F0ED0B8F5041F18D10AE0E7
:100BD000CB6815E0CB681B1D12E0CB6808330FE033
:100BE000CB680C330CE08B682BB1012B4FF0080362
:100BF00003D0456104E0042302E0056100E0002326
:100C0000FF2A01D8064601E000F104064FEA8405F8
:100C100001D9A5F12005D6F8008007FA05FC28EADD
:100C20000C0803FA05F548EA0508C6F800804D6887
:100C3000ED0062D5374DAE6946F00106AE61AD6993
:100C400024F0030605F001050095334D06EB050C75
:100C5000DCF80850A607360F07FA06F825EA08055B
:100C6000DFF8B880404503D14FF0000817E044E0BA
:100C7000DFF8AC80404502D14FF001080FE0DFF80B
:100C8000A480404502D14FF0020808E0DFF89880C8
:100C9000404502D14FF0030801E04FF0040808FA84
:100CA00006F848EA0508CCF808804D68D9F80060D5
:100CB000ED034D4601D5164300E096432E604D6886
:100CC000DAF80060AD03554601D5164300E09643BF
:100CD0002E604D68DBF80060ED025D4601D51643DD
:100CE00000E096432E604D68DEF80060AD02754668
:100CF00001D5164300E096432E60641C0D682A4619
:100D0000E5407FF431AFBDE8F88F000000040140FA
:100D100000001110001002400000014000080140D6
:100D2000000C0140001001400014014080680840A0
:100D300000D001207047C26821EA02030A4043EA5A
:100D40000241016170470AB1016170470904FBE784
:100D50000148806870470000300000200248816828
:100D6000027811448160704730000020074810B5B8
:100D7000016841F010010160032000F075F80F20B8
:100D800000F006F800F024F8002010BD002002401A
:100D900070B50D4D04464FF47A712878B1FBF0F030
:100DA0000A490968B1FBF0F000F0A9FE48B9102C1F
:100DB00007D200222146501E00F036F800206C6059
:100DC00070BD012070BD0000300000203C000020FC
:100DD0000C4808B5816941F001018161816901F028
:100DE00001010091C16941F08051C161C06900F009
:100DF000805000900448416821F0E06141F00071AA
:100E0000416008BD0010024000000140002809DBDD
:100E100000F01F02012191404009800000F1E02014
:100E2000C0F8001170470000F0B40E4B1B680C4670
:100E3000C3F30223C3F10705042D00D90425191DAE
:100E4000072901D2002300E0DB1E012606FA05F186
:100E5000491E214099409E40761E16403143F0BC09
:100E600001F05BBC0CED00E0064900F007020868E9
:100E70004FF6FF03184040EA0220034A104308607F
:100E8000704700000CED00E00000FA0510B529A441
:100E900001461DCC86B08DE81D002AA02A4C0068B2
:100EA00004900020012923D002293AD010291DD115
:100EB00061682268D20119D5C1F38342C9031DF8C4
:100EC000020009D5616804AAC1F34041515C1F4A80
:100ED000B2FBF1F1484301E01D4948436168490212
:100EE00004D440005FF00301B0FBF1F006B010BD88
:100EF000226AC2F30121012903D1920701D5C80357
:100F0000F4E7022905D1626A920702D549F640400A
:100F1000ECE70329EAD121688903E7D54FF22440A1
:100F2000E4E700F033F96168C1F38131491C4900FD
:100F3000DAE7000002030405060708090A0B0C0D96
:100F40000E0F1010010200000010024000127A0083
:100F500000093D002DE9F84305460078354CC007EF
:100F600054D0E0690026C00008D4E06940F0805009
:100F7000E061E069012600F0805000902E48016891
:100F8000C90512D40168804641F480710160FFF701
:100F9000DFFE074605E000BFFFF7DAFEC01B64284E
:100FA00023D8D8F80000C005F6D5206A10F44070A8
:100FB00021D0A98801F4407181421CD0206A1F49C8
:100FC000012220F440700A6000220A602062C007FB
:100FD00011D0FFF7BDFE074641F2883808E000BF98
:100FE000FFF7B6FEC11B414502D90320BDE8F883D7
:100FF000206A8007F4D5206A696820F440700843AD
:1010000020621EB1E06920F08050E06128788007FE
:1010100005D56068A96820F44040084360602878DE
:10102000C00605D56068E96820F480000843606068
:101030000020DBE700100240007000404004424204
:101040002DE9F0470F46050061D0434E306800F0AF
:101050000700B84209D2306820F0070038433060FA
:10106000306800F00700B84251D128683B4C810736
:1010700012D5400703D5606840F4E06060602878CE
:10108000000703D5606840F4605060606068A9683C
:1010900020F0F000084360602878C00728D0686816
:1010A000012810D02168022810D0890700292EDAE3
:1010B000616821F0030101436160FFF749FE80464A
:1010C00041F288390DE021688903EFE78901EDE7F6
:1010D000FFF73EFEA0EB0801494502D90320BDE819
:1010E000F0876068696800F00C00B0EB810FEFD109
:1010F000306800F00700B8420BD9306820F00700D4
:1011000038433060306800F00700B84201D0012059
:10111000E5E72878400705D56068E96820F4E060D5
:10112000084360602878000706D56068296920F4C4
:10113000605040EAC100606000F038F86168084A19
:10114000C1F30311515CC8400649086006480068B5
:10115000FFF71EFE0020C2E7002002400010024000
:10116000942900083C000020340000200448054970
:1011700000684968044AC1F30221515CC8407047C5
:101180003C00002000100240A42900080448054942
:1011900000684968044AC1F3C221515CC8407047E5
:1011A0003C00002000100240A429000812A185B0D4
:1011B0000FC98DE80F0014A0144A0068049051680C
:1011C000134801F00C03042B10D0082B0ED1C1F3EF
:1011D0008343C9031DF803000AD5516804AAC1F36B
:1011E0004041515C0A4A5043B0FBF1F005B07047F2
:1011F00008494843FAE70000020304050607080906
:101200000A0B0C0D0E0F101001020000001002401E
:1012100000127A0000093D002DE9F84F040070D05B
:101220002078C04DC00749D06868C0F3810001280C
:1012300007D06868C0F38100022809D16868C0033C
:1012400006D52868800339D560680028E7D035E0E6
:101250006068B0F5803F0BD010B1B0F5A02F11D071
:10126000286820F480302860286820F4802002E07C
:10127000286840F480302860606890B1FFF768FD0E
:1012800006460AE0286840F480202860F0E700BFA6
:10129000FFF75EFD801B642873D828688003F7D5AC
:1012A0000CE0FFF755FD064605E000BFFFF750FDD7
:1012B000801B6428F0D828688003F7D420789A4EE1
:1012C00080074FF001094FF0000839D5686810F029
:1012D0000C0F07D06868C0F38100022809D1686844
:1012E000C00306D42868800714D52069012808D1D6
:1012F00010E02069B0B1C6F80090FFF729FD07465D
:1013000005E00AE1FFF724FDC01B0228C4D82868C5
:101310008007F7D52868616920F0F80040EAC1002D
:1013200028600DE0C6F80080FFF712FD074604E0D4
:10133000FFF70EFDC01B022823D828688007F7D4CA
:10134000207800072CD57948A169D9B1C0F8009060
:10135000FFF7FEFC074604E0FFF7FAFCC01B02287B
:101360000FD8686A8007F7D571484FF4FA510068C2
:10137000B0FBF1F0009000BF0098411E0091FAD23E
:101380000EE080E0C0F80080FFF7E2FC074604E0D2
:10139000FFF7DEFCC01B022875D8686A8007F7D407
:1013A0002078400760D5E8690027C00008D4E869C4
:1013B00040F08050E861E869012700F0805000901B
:1013C0005C480168C90513D40168834641F4807103
:1013D0000160FFF7BDFC824606E000BFFFF7B8FCE6
:1013E000A0EB0A0064284ED8DBF80000C005F5D554
:1013F000E06801280AD008B1052813D0286A20F037
:1014000001002862286A20F0040002E0286A40F007
:1014100001002862E06841F2883B98B1FFF798FC30
:1014200082460BE0286A40F004002862EEE700BF25
:10143000FFF78EFCA0EB0A0159455AD8286A8007AD
:10144000F6D50CE0FFF784FC824605E0FFF780FC50
:10145000A0EB0A0159454CD8286A8007F6D41FB181
:10146000E86920F08050E861E06988B36968C1F3F9
:101470008101022944D00228C6F8608004D0FFF719
:1014800067FC044638E034E0FFF762FC074604E0FE
:10149000FFF75EFCC01B02282BD828688001F7D418
:1014A000206AB0F5803F05D16868A16820F400305B
:1014B00008436860D4E908010843696821F474119D
:1014C00008436860C6F86090FFF742FC044606E0F7
:1014D00025E000BFFFF73CFC001B022809D8286864
:1014E0008001F7D51BE000BFFFF732FC001B02288C
:1014F00002D90320BDE8F88F28688001F4D40EE0FB
:101500000128F7D06868226A00F48031914204D142
:10151000616A00F47010884201D00120EAE70020DF
:10152000E8E700000010024000004242800442420E
:101530003C0000200070004070B5040009D0606AD3
:10154000002540B125616561A56294F8510040B164
:101550000CE0012070BD6068B0F5827FF4D0E561D9
:10156000F2E784F85050204600F040F8022084F85A
:1015700051002068016821F040010160A0882189A4
:1015800000F4827001F404410843A18901F4006170
:101590000843217C01F002010843217D01F0010193
:1015A0000843218B01F400710843217F01F03801C9
:1015B000084394F8201001F080010843218D01F4C4
:1015C0000051084321680860A069042101EA104025
:1015D000216848602068C16921F40061C1616565C6
:1015E000012084F85100002070BD000030B585B0A6
:1015F00000240094019402940394006814498842E2
:1016000023D11448816941F480518161816901F4D9
:1016100080510491816941F00401816180690E4D1E
:1016200000F004000490A02000900220019003200C
:10163000039069462846FFF789FA4020CDE9000467
:10164000694628460294FFF781FA05B030BD0000D4
:101650000030014000100240000801402DE9F84F21
:10166000044640680025984616460F464FF0040B86
:10167000B0F5827F01D1A06888B194F850000128AC
:1016800018D0012084F85000FFF762FB814694F8DF
:1016900051004FF0000A01280ED0022582E084F8A4
:1016A00051B013460A462046CDF8008000F036F9C6
:1016B000BDE8F88F0220FBE7002F72D0002E70D01B
:1016C00084F851B0C4F854A0A763A687E687C4F88D
:1016D00030A0A4F834A0A4F836A0C4F840A0C4F800
:1016E00044A0A068B0F5004F09D12068016821F03E
:1016F000400101602068016821F480410160206898
:101700000168490603D4016841F040010160E068C6
:10171000D8B139E020688168C90709D0007BA16B86
:101720000870A06B401CA063E08F401EE0870CE0B7
:10173000FFF70EFBA0EB0901414503D3B8F1FF3FD2
:1017400003D036E0B8F1000F33D0E08F0028E1D1AC
:101750001DE020688168C90709D0C068A16B0880B6
:10176000A06B801CA063E08F401EE0870CE0FFF7B9
:10177000EFFAA0EB0901414503D3B8F1FF3F03D0D5
:1017800017E0B8F1000F14D0E08F0028E1D14A46ED
:101790004146204600F08BFE08B120206065606D58
:1017A00000B10125012084F8510084F850A028469A
:1017B0007EE70325F6E72DE9F84F044690F8500040
:1017C00000271D461646894601280DD04FF0010B13
:1017D00084F850B0FFF7BCFA804694F85100BA463E
:1017E000012804D0022793E00220BDE8F88FB9F168
:1017F000000F73D0002E71D0032084F85100C4F87C
:1018000054A0C4F83090A686E686C4F838A0A4F8A0
:101810003CA0A4F83EA0C4F844A0C4F840A0A0682E
:10182000B0F5004F09D12068016821F04001016046
:101830002068016841F48041016020680168490620
:1018400003D4016841F040010160E068B0F5006F29
:10185000606803D030B3012E24D041E008B1012EDE
:101860001CD1206B21680088C86006E02068816870
:10187000890709D5216B0988C160206B801C206312
:10188000E08E401EE08609E0FFF762FAA0EB080058
:10189000A84202D3681C01D031E07DB3E08E00285D
:1018A000E4D120E0206B21680078087306E020680E
:1018B0008168890709D5216B09780173206B401C69
:1018C0002063E08E401EE0860AE0FFF741FAA0EBBD
:1018D0000800A84203D3681C02D010E017E06DB1E5
:1018E000E08E0028E3D142462946204600F00DFE56
:1018F00008B120206065A06818B106E0FFE7032763
:1019000006E02068C16880680090606D00B1012722
:1019100084F851B084F850A0384666E72DE9F84FB6
:10192000044690F8500000270A9E1D4692468B46BA
:101930004FF0010901280ED0012084F85000FFF774
:1019400007FA804694F85100616801280CD0B1F57F
:10195000827F07D102E00220BDE8F88FA16809B9B3
:10196000042801D00227C2E0BBF1000F27D0BAF152
:10197000000F24D01DB394F85100042802D0052094
:1019800084F8510000206065C4F838A0E587A58779
:10199000C4F830B0E586A5862064606420680168DC
:1019A000490603D4016841F040010160E068B0F5E8
:1019B000006F606805D0E8B3012D46D07FE00127B5
:1019C00095E008B1012D39D1206B21680088C860ED
:1019D000206B801C2063E08E401EE0862EE0206895
:1019E000816889070FD5E18E69B1B9F1010F0AD17C
:1019F000216B0988C160206B801C2063E08E401E33
:101A0000E0864FF0000920688168C9070CD0E18F9B
:101A100051B1C068A16B0880A06B801CA063E08FEF
:101A2000401EE0874FF00109FFF792F9A0EB080094
:101A3000B04200E009E001D3701C50D1E08E0028D4
:101A4000CDD1E08F0028CAD13FE0206B216800781B
:101A50000873206B401C2063E08E401EE0862EE061
:101A60002068816889070FD5E18E69B1B9F1010F4E
:101A70000AD1216B09780173206B401C2063E08E32
:101A8000401EE0864FF0000920688168C9070CD02D
:101A9000E18F51B1C068A16B0870A06B401CA063BE
:101AA000E08F401EE0874FF00109FFF751F9A0EBEE
:101AB0000800B04202D3701C01D010E07EB1E08E6D
:101AC0000028CDD1E08F0028CAD1424631462046B9
:101AD00000F01BFD28B101272020606507E00327E7
:101AE00005E0A06818B92068C168806800900120EE
:101AF00084F85100002084F8500038462CE710B5D7
:101B0000401EB0F1807F01D3012010BD4FF0E024D2
:101B100060610F21601700F000FE0020A061072027
:101B20002061002010BD70B5040004D094F83D0081
:101B3000002510B106E0012070BD84F83C5020461D
:101B400000F022F8242084F83D002068C16821F4C8
:101B50000051C160204600F083FD2068016921F436
:101B6000904101612068416921F02A0141612068AA
:101B7000C16841F40051C1602564202084F83D0013
:101B800084F83E00002070BD30B585B0002400947C
:101B900001940294039400681449884224D11448A3
:101BA000816941F480418161816901F4804104913E
:101BB000816941F00401816180690E4D00F00400EB
:101BC00004904FF4007000900220019003200390D5
:101BD00069462846FEF7BAFF2815CDE90004694694
:101BE00028460294FEF7B2FF05B030BD0038014030
:101BF0000010024000080140FEE7000010B539481F
:101C000038494FF47A730268374CA2F5FA60496894
:101C1000984219D8A1F5FA60984215D801221146C8
:101C20002046FFF790F8012202212046FFF78BF8AB
:101C3000012204212046FFF786F8012208212046D0
:101C4000FFF781F8532010BD4FF4FA6040F6B83327
:101C500082420FD281420DD399420BD8002201213A
:101C60002046FFF770F8012202212046FFF76BF8AB
:101C7000522010BD9A420FD981420FD399421DD8EC
:101C8000012211462046FFF75EF80022022120467D
:101C9000FFF759F84C2010BD81420FD282421FD36A
:101CA0009A421DD8002204212046FFF74CF8012259
:101CB00008212046FFF747F8422010BD99420FD96E
:101CC00082420DD39A420BD8012204212046FFF70D
:101CD0003AF8002208212046FFF735F8462010BDCB
:101CE000002010BD28000020000C0140FEB500249B
:101CF000164800940194144902940160891581608A
:101D0000012505730475022606614FF460214460C5
:101D1000C161FEF79FFC08B172B6FEE70720009490
:101D2000CDE9015069460948FEF712FC08B172B6C8
:101D3000FEE7CDE9005669460448FEF709FC002895
:101D400001D072B6FEE7FEBD00240140DC00002099
:101D50002DE9F04385B000242848009401940294B2
:101D60000394816941F020018161816901F02001C2
:101D70000491816941F010018161816901F01001D4
:101D80000491816941F004018161816901F00401DC
:101D90000491816941F0080181618069DFF8608008
:101DA00000F008000490002203214046FEF7CBFF1C
:101DB000DFF8509040F20F27002239464846FEF7E0
:101DC000C2FF032001250226CDE90005CDE9024628
:101DD00069464046FEF7BAFE04208DE831006946A8
:101DE0000948FEF7B3FE00970396CDE90154694612
:101DF0004846FEF7ABFE05B0BDE8F0830010024098
:101E000000100140000C0140000801400F4810B5CF
:101E10000D4901604FF48271416000218160C16011
:101E20004FF400720161C0E905120822C0E90721E0
:101E3000416281620A21C162FFF77EFB002801D066
:101E400072B6FEE710BD0000003001400C0100201A
:101E5000FEE7FEE708B5002000F006F950208DF8F7
:101E6000000073208DF801006423022269460348B4
:101E7000FFF7A1FC012000F0F7F808BD40000020AA
:101E80000449054A0968B1FBF2F14143491EFDD2FC
:101E9000704700003C000020C0C62D0070B505460C
:101EA00000F053F90446C0F380166EB115B1C4F3C7
:101EB000420028704021072000F0C2FAA00603D596
:101EC0002021072000F0BCFA304670BD0FB47CB56D
:101ED00014460D460646582209A95C48FEF774F9D7
:101EE0005B4B0120DE60DD801C8100F0BDF800202E
:101EF00000F0B0F80520FEF717FE0821002000F0E2
:101F00009FFA3F21012000F09BFA0321022000F0FC
:101F100097FA0321084600F093FA0321042000F009
:101F20008FFA0221052000F08BFA0F21062000F025
:101F300087FA0E21072000F083FA0021082000F024
:101F40007FFA0021092000F07BFAE7248DF8034096
:101F50008DF802408DF801408DF804408DF8004066
:101F6000052269460A2000F083FAC2208DF803009A
:101F70008DF802008DF801008DF804008DF8000046
:101F8000052269460B2000F073FAC3210C2000F0F3
:101F900057FAC4210D2000F053FAC5210E2000F09D
:101FA0004FFAC6210F2000F04BFA8DF803408DF850
:101FB00002408DF801408DF804408DF80040052264
:101FC0006946102000F054FA0021112000F038FA80
:101FD0000021122000F034FA0021132000F030FA22
:101FE0000021142000F02CFA0021152000F028FA1E
:101FF0000021162000F024FAFFF72CFF00211C20FE
:1020000000F01EFA00211D2000F01AFA0F210846E8
:1020100000F078F9032000F04FF9012000F01EF9DC
:10202000022000F000F900F029F8202000F062F909
:1020300000F0EEF84C2000F00AF900F07FF800F014
:1020400079F800F09BF87CBC5DF814FB40000020A0
:1020500000000020020003480189C06800D001226E
:10206000FEF771BE0000002002000348C188C0686E
:1020700000D00122FEF767BE0000002010B51D2031
:1020800000F088F820F004011D2000F0D9F90021AB
:102090001C2000F0D5F902490020C87010BD0000D6
:1020A0000000002010B51D2000F074F840F006017B
:1020B0001D2000F0C5F91D2000F06CF848B9FFF7AD
:1020C000C9FE1D2000F066F840F006011D2000F05A
:1020D000B7F91C2000F05EF840F00301BDE81040A5
:1020E0001C2000F0ADB9000010B51D2000F052F822
:1020F00040F004011D2000F0A3F91D2000F04AF873
:1021000048B9FFF7A7FE1D2000F044F840F0040195
:102110001D2000F095F91C2000F03CF840F03F0134
:102120001C2000F08DF902490120C87010BD00008C
:1021300000000020FF21E22000F082B9FF21E12011
:1021400000F07EB9602000F025B8072000F022B82A
:1021500013B5052269460A2000F08AF9052269466E
:10216000102000F085F904488178202900D320212F
:10217000112000F065F91CBD0000002010B5002002
:1021800000F008F820F00201BDE81040002000F047
:1021900057B9000038B504460020FFF765FF04F08A
:1021A0001F008DF800006423012269460848FFF7EC
:1021B00002FB6423012206480DF10101FFF74EFAEC
:1021C0009DF801400120FFF74FFF204638BD000079
:1021D00040000020F8B5044615460E460020FFF7E3
:1021E00043FF04F01F008DF80000642301226946BC
:1021F0000648FFF7E0FA64232A4631460348FFF712
:102200002DFA0120FFF730FFF8BD0000400000204C
:102210007021072000F014B908B13F2100E000212F
:10222000012000F00DB910B504460020FFF7B2FF01
:1022300020F00C011CB1012C06D041F00C01BDE8CE
:102240001040002000F0FCB841F00801F7E77F28BB
:1022500000D37F200146052000F0F2B82DE9F041BF
:1022600007464FF000080620FFF794FF114D0026A7
:1022700020F028046E71022F0ED0012F10D06E7145
:102280002146062000F0DCF80620FFF783FFA0427D
:102290000BD14FF0010809E06E7144F02004EFE724
:1022A0000120687144F00804EAE76E714046BDE819
:1022B000F08100000000002010B504460620FFF762
:1022C00069FF20F00601032C0DD0022C05D0012C53
:1022D00006D054B1042C06D007E041F0040104E01C
:1022E00041F0020101E041F00601BDE81040062086
:1022F00000F0A6B8202800D320200149887070473C
:102300000000002000F00F0060F31F11042000F017
:1023100097B870B505460C460020FFF79BFE0020DD
:10232000FFF738FF20F0010040F00201002000F02C
:1023300087F80120FFF78EFE9620FFF7A1FD2146CA
:10234000284600F061F80120FFF784FE0F20FFF718
:1023500097FDBDE870400020FFF77CBE10B500205F
:10236000FFF778FEFFF7EAFEBDE81040FFF7E2BE98
:102370002DE9F04115460E460446FFF7E6FE0746F6
:10238000002020707021072000F05AF8C7F3401099
:102390002070C7F300103070C7F380102870BDE8BC
:1023A000F08100003EB50C460546FFF731FF21469F
:1023B0002846FFF7AEFFFEF7CBFC0446012201A939
:1023C0000820FFF707FFFFF7C0FE10F0300F04D121
:1023D000FEF7BEFC001B0A28F0D30A4A02A9684691
:1023E000FFF7C6FF074C9DF80050207810B1FFF7AB
:1023F000A9FE60700020FFF751FDFFF79FFE284601
:102400003EBD00000000002038B505460C46002007
:10241000FFF72AFEA0208DF8000064230122694600
:102420000648FFF7C8F96423224629460348FFF708
:10243000C2F90120FFF718FE38BD0000400000205F
:1024400038B505460C460020FFF70EFE45F020008B
:102450008DF800008DF8014064230222694603488C
:10246000FFF7A9F90120FFF7FFFD38BD400000206C
:10247000F8B5044615460E460020FFF7F5FD44F07A
:1024800020008DF800006423012269460648FFF70A
:1024900092F964232A4631460348FFF78CF901205C
:1024A000FFF7E2FDF8BD0000400000207047F8B5DE
:1024B000044640684FF48273984217D1A0684FF4E5
:1024C0008065B0F5004F01D0A8420FD120680668A2
:1024D00026F0400606606068984207D1A068A842CE
:1024E00004D100920B460022012103E000920B462A
:1024F00000228021204600F019F8002804D0606DE9
:1025000040F0200060650320F8BD38B50B4600920E
:1025100004460022802100F009F8002804D0606DF4
:1025200040F020006065032038BD00002DE9F8432D
:102530001E46914688460446089DFEF709FC401B4E
:10254000351AFEF705FC074625480068C0F3CB3076
:10255000684338E0701C37D0FEF7FAFBC01BA84276
:1025600003D215B1009860B32CE02068416821F0D7
:10257000E00141606068B0F5827F0BD1A068B0F5E2
:10258000004F02D0B0F5806F04D12068016821F0BF
:1025900040010160A06AB0F5005F09D120680168C0
:1025A00021F4005101602068016841F4005101608C
:1025B000012084F85100002084F850000320BDE879
:1025C000F8830025401E00902068816838EA0100E9
:1025D00004D000214945BDD10020F0E70121F9E7F1
:1025E0003C0000207047FEF7B9BB30B593B02821FE
:1025F0006846FDF71BFE14210AA8FDF717FE00240C
:10260000012108040F94109412940491CDE9001054
:10261000CDE9080411940294022507956846FEF757
:10262000FBFD08B172B6FEE70F20CDE90A054FF4B5
:102630008060CDE90C4000210AA80E94FEF700FD51
:1026400008B172B6FEE70FA80F951194FEF782FC51
:10265000002801D072B6FEE713B030BD704700000D
:1026600070B5044600680169E26821F440511143E5
:1026700001612169A0680843616908432168CA684B
:1026800041F20C639A430243CA6020684169A2691F
:1026900021F44071114341611E492068884202D1F2
:1026A000FEF774FD01E0FEF761FD00EBC00101EBF8
:1026B0000012606864218000B2FBF0F3B3FBF1F319
:1026C0006FF018067343B2FBF0F5B2FBF0F605EBC2
:1026D0008305322303EB0515B5FBF1F5B6FBF1F6E7
:1026E00005F0F00505EB0615B2FBF0F6B2FBF0F0D5
:1026F000B0FBF1F06FF01802504306EB800003EBE3
:102700000010B0FBF1F0216800F00F002844886051
:1027100070BD000000380140FEE70907090E0028DF
:1027200004DB00F1E02080F80014704700F00F0097
:1027300000F1E02080F8141D7047704770470000DA
:1027400010B51749174C087810B1012820D105E0C1
:102750004878E8B901200870487019E048780128E5
:1027600016D1002008704870024601212046FEF76D
:10277000EAFA002202212046FEF7E5FA00220421AF
:102780002046FEF7E0FA002208212046FEF7DBFA99
:102790002046BDE810404FF40071FEF7CCBA0000AF
:1027A00018000020000C0140704770B50446818A73
:1027B0000069FEF7BBFAA1780126814204D0A0701F
:1027C000E670FEF7C5FA6060E078002540B1FEF7DC
:1027D000BFFA6168401A0F2802D3A0782070E57014
:1027E00020786178884210D0F8B1FEF7B1FAA1687C
:1027F000401AB0F57A7F02D82046FFF79EFF2046A8
:10280000FFF7D2FF257320786070207B00280BD063
:10281000FEF79EFAA168401A40F6B831884203D309
:102820002046FFF78BFF257370BD26732046FFF708
:1028300087FFFEF78DFAA060E5E7016182827047AD
:10284000ACB0FEF793FAFFF7D0FEFFF781FA4A48E3
:10285000416941F0010141614069002200F001003D
:10286000009011460B20FEF7DFFA0B20FEF7CEFAA0
:10287000FFF7CCFA42484149002401604FF4E131AE
:10288000C0E901140C21C460C0E904418461C46141
:10289000FFF749F908B172B6FEE7FFF727FA3848A3
:1028A000042238494430FFF7C8FF374E34493622F6
:1028B0003470583915A8FDF787FC314D583DE88E26
:1028C000ADF88A00A5F13000816E2391B0F86C005C
:1028D000ADF89000E88FADF89200112205F14001AB
:1028E00025A8FDF771FC95F851008DF8A500686DDD
:1028F0002A90542216A96846FDF766FC022201219F
:102900002248159BFFF7E2FAFFF728FDD6E90201FE
:10291000FFF71EFC0020FFF77FFC3420FFF797FC39
:102920002020FFF7E7FCFFF7DFFBFFF7BBFBA5F17C
:102930003000FDF7A1FD022206F11001A5F13000E3
:10294000FDF75CFFB435307810B101280FD102E0FB
:1029500020210FA006E0FFF751F9287008486C709D
:1029600020215C30FFF71EFD3220FEF7DDF8044821
:102970004430FFF71AFFE6E700100240003801403C
:1029800064010020000801401800002000100140F0
:102990004F000000000000000000000001020304DE
:1029A000060708090000000001020304CC29000802
:1029B0000000002040000000280100080C2A000848
:1029C000400000204808000044010008000000000A
:1029D00000000000000000000000000000000000F7
:1029E000000000000000000000000000AA443322A4
:1029F00011000000000000000000000001000000C5
:0C2A000010000000000000000024F400A2
:04000005080000ED02
:00000001FF
